:020000040800F2
:10000000B0140020690A00085D0300085F030008BF
:1000100063030008670300086B030008000000008A
:100020000000000000000000000000006F03000856
:100030007103000800000000730300087503000846
:10004000830A0008830A0008830A0008830A00085C
:10005000830A0008830A0008830A0008830A00084C
:10006000830A0008830A0008830A0008830A00083C
:10007000830A0008830A0008830A0008830A00082C
:10008000830A0008830A0008830A0008830A00081C
:10009000830A0008830A0008830A0008830A00080C
:1000A000830A0008830A0008830A0008830A0008FC
:1000B000830A000821060008830A0008830A000852
:1000C000830A0008830A0008830A0008830A0008DC
:1000D000830A0008DF090008830A000845070008B2
:1000E000830A0008830A0008830A0008830A0008BC
:1000F000830A0008830A0008830A0008830A0008AC
:10010000830A0008830A0008830A0008830A00089B
:10011000830A0008830A0008830A0008830A00088B
:10012000830A0008830A0008830A0008830A00087B
:10013000830A0008830A0008830A0008830A00086B
:10014000830A0008830A0008830A0008830A00085B
:10015000830A0008830A0008830A0008830A00084B
:10016000830A0008830A0008830A0008830A00083B
:10017000830A0008830A0008830A0008830A00082B
:10018000830A0008830A000800F002F800F04DF826
:100190000AA090E8000C82448344AAF10107DA45E2
:1001A00001D100F042F8AFF2090EBAE80F0013F0E7
:1001B000010F18BFFB1A43F001031847844F0000DA
:1001C000A44F0000103A24BF78C878C1FAD852076B
:1001D00024BF30C830C144BF04680C6070470000C1
:1001E0000023002400250026103A28BF78C1FBD840
:1001F000520728BF30C148BF0B607047642904F024
:100200005984782904F09284002070471FB504F0C7
:100210005BFF04F0ABFE04000020002104F03EFF71
:10022000401C60601FBD10B510BD04F0C3FE114638
:10023000FFF7ECFF00F018F804F0E1FE03B4FFF75D
:10024000F2FF03BC00F06CFB10B542F2CF010920B5
:1002500000F0BAF94FF4165000F085FA1D4800215D
:10026000018003F0AAFB10BD4FF4A06000F01CFC5D
:10027000A82000F0D3FA00F087F94FF4E13000F045
:100280005CFB00F0DDF9FFF7DFFF13A004F0DEFBFD
:100290001AA004F0DBFB1BE002F0F1F90D4803F0BB
:1002A00024FD002000F0EAF90446022C05D11DA02F
:1002B00004F0CCFB022003F096FB042C05D120A017
:1002C00004F0C4FB002003F08EFBC82000F008FB04
:1002D000E2E70000380000202D2D2DBBFAD6C7D450
:1002E000C6494F542D4C4544BFD8D6C6CAB5D1E9EE
:1002F0002D2D2D2D2D2D2D2D0D0A00004B45593165
:100300003A4169724C696E6BC1ACBDD3C4A3CABD1E
:10031000094B45595F55503AB8B4CEBB0D0A0D0A8A
:100320000000000057494649BDF8C8EB4169724CCE
:10033000696E6BC1ACBDD3C4A3CABD0D0A00000079
:1003400057494649B8B4CEBB2CC7EBD6D8D0C2C5A6
:10035000E4D6C3C1ACBDD30D0A000000704700BF96
:10036000FEE700BFFEE700BFFEE700BFFEE7704705
:1003700070477047704700000CB500200190009056
:100380007648006840F480307449086000BF7348C4
:10039000006800F4003000900198401C0190009823
:1003A00018B90198B0F5A04FF1D16C48006800F47D
:1003B000003010B10120009001E000200090009872
:1003C000012846D165484030006840F080506349BC
:1003D000403108606248006840F44040604908606D
:1003E0005E48083000685D490831086008460068CA
:1003F00040F4004008600846006840F4A0500860DF
:100400005848091F0860081F006840F08070091FE5
:10041000086000BF5148006800F000700028F9D063
:1004200040F20570504908604C480830006820F0E0
:1004300003004A49083108600846006840F002009D
:10044000086000BF45480830006800F00C0008282C
:10045000F8D10CBD10B54548006840F47000434920
:1004600008603E48006840F001003C4908600020F8
:100470003A4908310860394800683D490840374921
:1004800008603C48091D0860081F006820F48020AF
:10049000091F0860002031490C310860FFF76CFF2C
:1004A0004FF0006031498039086010BD70B5002000
:1004B0000022022300240221284D08352D6805F072
:1004C0000C0020B1042806D0082834D107E02A4DBA
:1004D0002A4E356033E02A4D284E35602FE01F4DFF
:1004E0002D1D2D68C5F380541C4D2D1D2D6805F064
:1004F0003F0154B1224DB5FBF1F5184E361D36685B
:10050000C6F3881605FB06F209E01B4DB5FBF1F5B5
:10051000124E361D3668C6F3881605FB06F20F4DDF
:100520002D1D2D68C5F301456D1C6B00B2FBF3F565
:10053000124E356003E0104D104E356000BF00BF15
:10054000064D08352D68C5F303150E4E705D0B4D35
:100550002D68C540094E356070BD0000003802406E
:100560000070004008544007003C024088ED00E065
:10057000FFFFF6FE103000240024F40000000020ED
:1005800000127A00040000201CB50121202000F098
:100590001FFE4FF4C060009001208DF80400002081
:1005A0008DF8060003208DF8050001208DF8070066
:1005B0006946044800F06EFB4FF4C061014800F04A
:1005C000E5FB1CBD001402407FB505460C46012129
:1005D000022000F046FE0295ADF804400020ADF880
:1005E0000600ADF80C0001A9144800F0F2FF01224A
:1005F0001146124801F08EFC0121104801F072F8FA
:100600001D208DF8000001208DF8010003208DF8D9
:10061000020001208DF80300684600F04AFA7FBD11
:1006200010B50121054801F08CFC012805D10121FC
:10063000024801F097FC02F027F810BD00040040CA
:100640001CB50121112000F0C3FD1C2000900020EA
:100650008DF8040003208DF8050001208DF80700B7
:100660006946354800F016FB0120009002208DF805
:1006700007006946314800F00DFB1CBD10B504466B
:1006800014B101202E4908702D480078002837D079
:100690001021294800F060FB78B10821264800F0BD
:1006A0005BFB50B10421244800F056FB28B1012126
:1006B000224800F051FB012822D10A2000F010F955
:1006C00000201F49087010211B4800F045FB08B9A5
:1006D000012010BD0821184800F03EFB08B9022097
:1006E000F7E70421144800F037FB08B90320F0E7CE
:1006F0000121124800F030FB01281BD10420E8E75B
:1007000010210D4800F028FB012813D108210A48C8
:1007100000F022FB01280DD10421074800F01CFB4A
:10072000012807D10121054800F016FB10B901206E
:10073000034908700020CCE700100240000002408E
:100740001400002008B540F22551324801F0C6FEE1
:1007500040B1304801F000FEC0B20090012168466F
:1007600002F050F808BD10B588B0044601210220FF
:1007700000F02EFD0121880400F073FD254801F0F2
:10078000CDFC07220B21244800F00FFB07220A2191
:10079000214800F00AFB4FF44060059002208DF8DC
:1007A00018008DF8190000208DF81A0001208DF82E
:1007B0001B0005A9184800F06DFA01940020ADF85F
:1007C0000800ADF80A00ADF80C00ADF810000C20E0
:1007D000ADF80E0001A90F4801F007FD01210D48F9
:1007E00001F08BFD012240F225510A4801F03BFE49
:1007F00027208DF81C0002208DF81D0003208DF8A5
:100800001E0001208DF81F0007A800F052F908B063
:1008100010BD0000004800400004024010B504462E
:100820006FF0040000F092F9E11704EB5171C1F38D
:10083000C701394A11701046007800EB4001C1EB46
:10084000C0104FF6FF7101EAC0003449088010BDA6
:100850000146314A12784A434FF0E0235A610022A0
:100860009A611A46126942F001021A6100BF4FF004
:10087000E022106900F001021AB100F48032002A6F
:10088000F5D04FF0E022126922F001024FF0E02390
:100890001A6100229A6170470146204A12884A4331
:1008A0004FF0E0235A6100229A611A46126942F021
:1008B00001021A6100BF4FF0E022106900F001024E
:1008C0001AB100F48032002AF5D04FF0E02212690C
:1008D00022F001024FF0E0231A6100229A61704772
:1008E00070B504464FF4077094FBF0F0C6B24FF4B5
:1008F000077094FBF0F100FB114085B205E04FF466
:100900000770FFF7C9FF701EC6B2002EF7D115B1F0
:100910002846FFF7C1FF70BD160000201800002018
:1009200000BF704700BF4C4A128802F04002002A04
:10093000F9D0C2B2484B9A80704710B588B00446CF
:100940000121084600F044FC0121102000F09AFC2F
:1009500007220921414800F028FA07220A213F48CE
:1009600000F023FA4FF4C060069002208DF81C00BE
:100970008DF81D0000208DF81E0001208DF81F004D
:1009800006A9364800F086F902940020ADF80C0064
:10099000ADF80E00ADF81000ADF814000C20ADF865
:1009A000120002A92C4801F020FC01212A4801F084
:1009B000A4FC012240F22551274801F054FD2520D6
:1009C0008DF8040003208DF805008DF80600012045
:1009D0008DF8070001A800F06CF808B010BD10B544
:1009E00040F225511C4801F079FD10B31A4801F07E
:1009F000B3FCC4B21A48008800F40040C8B91848D3
:100A0000008800F4804060B10A2C03D00020144913
:100A1000088020E01248008840F400401049088017
:100A200019E00D2C06D10E48008840F480400C4996
:100A3000088010E00A480088C0F30D0009490C54F2
:100A400007480088401C0649088008460088C728D7
:100A500001DD0020088010BD0010014000000240B0
:100A6000200000204C00002009488047094800472A
:100A7000FEE7FEE7FEE7FEE7FEE7FEE7FEE7FEE74E
:100A8000FEE7FEE704480549054A064B70470000AB
:100A90005504000889010008B0020020B0140020AD
:100AA000B0040020B004002032490143324A1160F2
:100AB000704770B5002100230F22C4781CB32E4C60
:100AC000246804F4E064C4F5E064C4F30721C1F1D0
:100AD0000404E3B20A4144789C40E1B284781440B3
:100AE00021430C07210E254C05786155047804F04C
:100AF0001F050124AC4005786D11AD0005F1E0251E
:100B0000C5F8004109E0047804F01F050124AC4059
:100B10001B4D0678761145F8264070BD194A0A40EB
:100B20000243154B1B1F1A60704739B1124A121D40
:100B300012680243104B1B1D1A6006E00E4A121D7C
:100B4000126882430C4B1B1D1A607047042808D1A1
:100B50004FF0E021096941F004014FF0E0221161FA
:100B600007E04FF0E021096921F004014FF0E02295
:100B7000116170470000FA050CED00E000E400E0B0
:100B800080E100E080FFFF1F10B5044698488442D2
:100B900008D10121084600F086FB0021012000F069
:100BA00082FB76E09348844208D10121022000F0C4
:100BB0007AFB0021022000F076FB6AE08E48844236
:100BC00008D10121042000F06EFB0021042000F078
:100BD0006AFB5EE08948844208D10121082000F0C8
:100BE00062FB0021082000F05EFB52E08448844252
:100BF00008D10121102000F056FB0021102000F048
:100C000052FB46E07F48844208D10121202000F0B9
:100C10004AFB0021202000F046FB3AE07A4884425B
:100C200008D10121402000F03EFB0021402000F0CF
:100C30003AFB2EE07548844208D10121802000F063
:100C400032FB0021802000F02EFB22E0704884421D
:100C500008D10121801500F026FB0021A01500F02D
:100C600022FB16E06B48844208D10121401500F0B8
:100C70001AFB0021601500F016FB0AE0664884426A
:100C800007D10121001500F00EFB0021201500F016
:100C90000AFB10BDF0B50A4600210023002400BF66
:100CA0003DE0012505FA01F3156805EA03049C42BD
:100CB00034D105684F000326BE40B5430560157961
:100CC0004E00B5400668354305601579012D02D008
:100CD0001579022D16D185684F000326BE40B54315
:100CE000856055794E00B540866835438560456816
:100CF00001268E40B5434560456896798E40B6B270
:100D000035434560C5684F000326BE40B543C56006
:100D1000D5794E00B540C6683543C560491C1029D9
:100D2000BFD3F0BD4FF6FF71016000210171417129
:100D30008171C171704708B54FF480320092009AFA
:100D40000A430092009AC261C161009AC261C269FD
:100D50000092C269009208BD0246002013690B4050
:100D60000BB1012000E0002070470146086980B205
:100D700070470246002053690B400BB1012000E090
:100D8000002070470146486980B270470183704770
:100D9000418370470AB1018300E04183704741619C
:100DA000704742694A4042617047F0B50023002411
:100DB0004D07ED0E02FA05F3CE1000F1200555F8AF
:100DC00026504E07F70E0F26BE40B543CF1000F158
:100DD000200646F82750CE1000F1200555F8265081
:100DE00045EA0304CE1000F1200545F82640F0BD89
:100DF000000002400004024000080240000C0240D3
:100E0000001002400014024000180240001C024082
:100E1000002002400024024000280240F9480068F7
:100E200040F00100F74908600020F64908310860E9
:100E3000F4480068F4490840F2490860F348091D85
:100E40000860F348EF4984310860F0481038091D04
:100E50000860EC48006820F48020EA49086000201F
:100E6000E8490C310860E7498C310860704700217F
:100E7000E44A921C117011460870704710B5014683
:100E80000022002300204A11012A02D1DD4C2368F0
:100E900008E0022A03D1DB4C7034236802E0D94C0D
:100EA0007434236801F01F02012494401C400CB1EB
:100EB000012000E0002010BD38B500200090002483
:100EC000002500BF3120FFF7D9FF05460098401CE0
:100ED00000900098B0F5A04F01D0002DF2D0312045
:100EE000FFF7CCFF08B1012400E00024204638BD04
:100EF00001460020C34A106820F0F80040EAC10013
:100F000010607047C349086070470021BD4A7032C5
:100F100011701170012802D004280AD104E00121C7
:100F2000B84A7032117005E00521B64A703211706E
:100F300000E000BF00BF7047B7490860704770B558
:100F4000049C41EA82150126C6EB530645EA064594
:100F5000054345EA0465AB4E361D356070BDAD49AD
:100F600008667047820142EA0172A64B84331A6018
:100F70007047A8498866704710B5830143EA01634A
:100F800043EA02739F4C8834236010BDA14908676F
:100F90007047A049C864704702460020994B083347
:100FA000186820F0EC6042EA01031843954B0833BF
:100FB0001860704702460020924B0833186820F0F2
:100FC000784042EA010318438E4B0833186070479B
:100FD000014600208B4A0832106820F003000843C5
:100FE0001060704787480830006800F00C007047B8
:100FF00001460020834A0832106820F0F0000843C0
:1010000010607047014600207E4A0832106820F4C4
:10101000E05008431060704701460020794A0832CA
:10102000106820F4604040EAC10010607047F0B5DD
:10103000002100220024022500260223714F0837D8
:101040003F6807F00C0121B1042905D0082937D1E8
:1010500005E0724F076036E0714F076033E0694F7B
:101060003F1D3F68C7F38056664F3F1D3F6807F03E
:101070003F036EB16A4FB7FBF3F7DFF888C10CF19D
:10108000040CDCF800C0CCF3881C07FB0CF40CE06B
:10109000624FB7FBF3F7DFF86CC10CF1040CDCF81E
:1010A00000C0CCF3881C07FB0CF4564F3F1D3F6873
:1010B000C7F301477F1C7D00B4FBF5F7076002E032
:1010C000564F076000BF00BF4E4F08373F6807F01C
:1010D000F0010909534F7A5C0768D7404760494FD0
:1010E00008373F6807F4E051890A4E4F7A5C476839
:1010F000D7408760434F08373F6807F46041490B8A
:10110000484F7A5C4768D740C760F0BD002100F4C3
:101110004072B2F5407F0AD13A4A0832116821F490
:10112000F811414A02401143364A08321160354AEB
:1011300070321268C0F30B031A43324B70331A60DB
:101140007047354944390860704733494039086071
:10115000704736490860704701460020294A8C32A2
:10116000106820F01F004A1E1043264A8C3210607F
:10117000704701460020234A8C32106820F4F85052
:101180004A1E40EA02201F4A8C3210607047014616
:1011900000201C4A8C32106820F440100843106074
:1011A000704701460020174A8C32106820F4400036
:1011B00008431060704701460020124A8C321068C4
:1011C00020F44030084310607047194908607047A8
:1011D00039B10C4A3032126802430A4B30331A607C
:1011E00006E0084A303212688243064B30331A60F8
:1011F0007047F9B1034A343212680243014B343369
:101200001A601CE000380240FFFFF6EA10300024AC
:101210000030002000004742800E47420024F400C6
:1012200000127A0022000020FFFCFF0F5C01474201
:10123000E01147428F4A126882438E4B1A60704712
:1012400039B18C4A121D126802438A4B1B1D1A6069
:1012500006E0884A121D12688243864B1B1D1A60E5
:10126000704739B1834A0C3212680243814B0C3308
:101270001A6006E07F4A0C32126882437D4B0C33C1
:101280001A60704739B17B4A103212680243794BB9
:1012900010331A6006E0774A103212688243754BA9
:1012A00010331A60704739B1724A243A1268024307
:1012B000704B243B1A6006E06E4A243A126882435F
:1012C0006C4B243B1A60704739B16A4A203A126865
:1012D0000243684B203B1A6006E0664A203A1268D7
:1012E0008243644B203B1A60704739B1614A1C3A13
:1012F000126802435F4B1C3B1A6006E05D4A1C3AD1
:10130000126882435B4B1C3B1A60704739B1594AE3
:10131000143A12680243574B143B1A6006E0554AD0
:10132000143A12688243534B143B1A60704739B128
:10133000504A103A126802434E4B103B1A6006E0C6
:101340004C4A103A126882434A4B103B1A6070476D
:1013500039B1484A1C3212680243464B1C331A60AA
:1013600006E0444A1C3212688243424B1C331A6026
:10137000704739B13F4A2032126802433D4B203357
:101380001A6006E03B4A203212688243394B203310
:101390001A60704739B1374A243212680243354B1C
:1013A00024331A6006E0334A243212688243314BF8
:1013B00024331A60704739B12E4A2C321268024326
:1013C0002C4B2C331A6006E02A4A2C3212688243D6
:1013D000284B2C331A60704739B1264A30321268D4
:1013E0000243244B30331A6006E0224A303212683E
:1013F0008243204B30331A607047012808D11D49C1
:101400003C31096841F008011A4A3C32116007E09A
:1014100018493C31096821F00801164A3C32116034
:10142000704739B1134A273A12780243114B273BD0
:101430001A7006E00F4A273A127882430D4B273B79
:101440001A7070470B484030006840F080700949BE
:1014500040310860704701460020064A283A126869
:101460000A400AB1012000E00020704701492639F6
:10147000087070473438024010B50446FE48844274
:1014800008D101210846FFF752FF00210120FFF794
:101490004EFF9DE0B4F1804F08D101210846FFF7CF
:1014A00035FF00210120FFF731FF91E0F34884422E
:1014B00008D101210220FFF729FF00210220FFF7B8
:1014C00025FF85E0EE48844208D101210420FFF782
:1014D0001DFF00210420FFF719FF79E0E94884424D
:1014E00008D101210820FFF711FF00210820FFF794
:1014F0000DFF6DE0E448844208D101211020FFF780
:1015000005FF00211020FFF701FF61E0DF48844262
:1015100008D101212020FFF7F9FE00212020FFF74C
:10152000F5FE55E0DA48844208D101210220FFF798
:10153000FEFE00210220FFF7FAFE49E0D548844272
:1015400009D101210804FFF7F2FE00214FF4803099
:10155000FFF7EDFE3CE0D048844209D10121480468
:10156000FFF7E5FE00214FF40030FFF7E0FE2FE02B
:10157000CA48844209D101218804FFF7D8FE00211E
:101580004FF48020FFF7D3FE22E0C548844208D103
:1015900001214020FFF7BAFE00214020FFF7B6FEF0
:1015A00016E0C048844208D101218020FFF7AEFE3A
:1015B00000218020FFF7AAFE0AE0BB48844207D141
:1015C00001218015FFF7A2FE0021A015FFF79EFE66
:1015D00010BD00220288A84B98420ED0AC4B984216
:1015E0000BD0B0F1804F08D0A44B984205D0A44B4B
:1015F000984202D0A34B984204D14FF68F731A4001
:101600004B881A43A04B984207D0A04B984204D075
:101610004FF6FF431A400B891A4302804B68C3629E
:101620000B880385944B984202D0994B984201D184
:101630008B7A03860123838270474FF0FF3141602C
:101640000021018001814180817270470185828281
:1016500070470A46002101884FF68F7319401143E5
:101660000180704741627047C16270470146486A15
:1016700070470146088D704721B1028842F002028E
:10168000028004E002884FF6FD731A400280704722
:1016900021B1028842F00402028004E002884FF681
:1016A000FB731A400280704721B1028842F0800229
:1016B000028004E002884FF67F731A400280704770
:1016C00002884FF6F7731A40028002880A430280AC
:1016D000704702884FF6FF431A40028002880A438F
:1016E0000280704721B1028842F00102028004E0CA
:1016F00002884FF6FE731A400280704770B50024CE
:1017000000220023058C4FF6FE7635400584028CBE
:101710008388048B4FF68F752C40B51E2C400D88A6
:101720002C43751E2A408D892A434D882A43524DE9
:10173000A84202D0564DA84213D14FF6F7752A4061
:10174000CD892A434FF6FB752A408D882A434FF6F0
:10175000FF652B404FF6FF552B400D8A2B434D8ADA
:101760002B43838004838D684563028470BD70B50C
:10177000002400220023058C4FF6EF7635400584C7
:10178000028C8388048B48F6FF752C404FF6FF458A
:101790002C400D884FF6FF7606EA05252C434FF6C0
:1017A000DF752A408D8906EA05152A434D8806EA29
:1017B00005152A43304DA84202D0354DA8421DD10F
:1017C0004FF67F752A40CD894FF6FF7606EA05155C
:1017D0002A434FF6BF752A408D8806EA05152A432D
:1017E0004FF6FF352B404FF2FF752B400D8A06EA6E
:1017F00085052B434D8A06EA85052B4383800483A8
:101800008D688563028470BD70B5002400220023BA
:10181000058C4FF6FF6635400584028C8388848BE7
:101820004FF68F752C404FF6FC752C400D882C43DD
:101830004FF6FF552A408D894FF6FF7606EA0525BB
:101840002A434D8806EA05252A430B4DA84202D0BB
:101850000F4DA84238D14FF2FF752A40CD894FF67F
:10186000FF7606EA05252A434FF6FF352A408D8884
:1018700006EA05252A4319E0000001400004004063
:1018800000080040000C0040001000400014004020
:101890000004014000400140004401400048014074
:1018A00000180040001C0040002000404EF6FF756C
:1018B0002B404DF6FF752B400D8A06EA05152B438C
:1018C0004D8A06EA05152B43838084838D68C563A2
:1018D000028470BD70B5002200230024058C4EF6F2
:1018E000FF7635400584038C8488828B48F6FF752B
:1018F0002A404FF6FF452A400D884FF6FF7606EA4C
:1019000005252A434DF6FF752B408D8906EA0535DE
:101910002B434D8806EA05352B43FE4DA84202D0E5
:10192000FD4DA84208D14BF6FF752C400D8A4FF6AD
:10193000FF7606EA85152C43848082838D680564D2
:10194000038470BD0021018041808180816081819C
:10195000C18101824182704770B503460020002496
:101960001846183001258D40ACB21D8CA5431D844E
:1019700009B108290AD100EB610005684FF68F769E
:10198000354005600568154305600FE00D1FC5F380
:101990004E052844056848F6FF7635400560056821
:1019A0004FF6FF7606EA02263543056070BD4163B7
:1019B000704781637047C1637047016470470A468E
:1019C0000021018B4FF68F7319401143018370473B
:1019D0000A460021018B48F6FF7319404FF6FF734A
:1019E00003EA02231943018370470A460021818BD1
:1019F0004FF68F7319401143818370470A460021C7
:101A0000818B48F6FF7319404FF6FF7303EA0223F8
:101A10001943818370470A460021018B4FF6F77303
:101A200019401143018370470A460021018B4FF290
:101A3000FF7319404FF6FF7303EA02231943018332
:101A400070470A460021818B4FF6F7731940114306
:101A5000818370470A460021818B4FF2FF73194042
:101A60004FF6FF7303EA02231943818370470A4646
:101A70000021018B4FF6FB7319401143018370471E
:101A80000A460021018B4FF6FF3319404FF6FF73D2
:101A900003EA02231943018370470A460021818B20
:101AA0004FF6FB7319401143818370470A460021AA
:101AB000818B4FF6FF3319404FF6FF7303EA022381
:101AC0001943818370470A460021018B4FF67F73CB
:101AD00019401143018370470A460021018BC1F36D
:101AE0000E014FF6FF7303EA022319430183704787
:101AF0000A460021818B4FF67F7319401143818381
:101B000070470A460021818BC1F30E014FF6FF7327
:101B100003EA02231943818370470A460021018C9E
:101B20004FF6FD7319401143018470470A460021A6
:101B3000018C4FF6F77319401143018470470A4630
:101B40000021018C4FF6DF7319404FF6FF7303EA53
:101B500002131943018470470A460021018C4FF695
:101B60007F7319404FF6FF7303EA02131943018490
:101B700070470A460021018C4FF6FF5319404FF67B
:101B8000FF7303EA02231943018470470A460021C8
:101B9000018C4FF2FF7319404FF6FF7303EA0223E3
:101BA0001943018470470A460021018C4DF6FF73EA
:101BB00019404FF6FF7303EA02331943018470475B
:101BC00030B5002301248C40A3B2048C9C430484D0
:101BD000048C02FA01F5ADB22C43048430BD30B55B
:101BE000002304248C40A3B2048C9C430484048C02
:101BF00002FA01F5ADB22C43048430BD828B4FF262
:101C0000FF331A408283828B4FF6FF7303EA01236E
:101C10001A4382837047F0B50C4615460021002216
:101C20000026078C4EF6FF7C07EA0C070784818BA1
:101C3000028C4FF6FF7707EA043640F6FF4739403B
:101C40004FF6FF7707EA052739434FF6FF7707EA94
:101C50000337394345F6FF773A4046F480573A4315
:101C600081830284F0BD828B4FF6F3731A40828326
:101C7000828B0A4382837047F0B50C4615460021DB
:101C800000220026078C4FF6FF6C07EA0C0707843A
:101C9000818B028C4FF6FF7707EA04264FF60C770C
:101CA00039404FF6FF7707EA03172F4339434FF2C6
:101CB000FF573A4046F480773A4381830284F0BD6F
:101CC000028B4FF2FF331A400283028B4FF6FF73F1
:101CD00003EA01231A4302837047F0B50C46154608
:101CE000002100220026078C4FF6EF7C07EA0C0744
:101CF0000784018B028C4FF6FF7707EA041640F643
:101D0000FF4739404FF6FF7707EA033739434FF66D
:101D1000FF7703E0000001400004014007EA0527C7
:101D200039434FF65F773A4046F010073A43018354
:101D30000284F0BD028B4FF6F3731A400283028BCC
:101D40000A4302837047F0B50C4615460021002275
:101D5000068C4FF6FE773E400684018B028C4FF6D0
:101D60000C7631407E1C06EA03162E4331434FF6B3
:101D7000F576324044F00106324301830284F0BD1F
:101D800070B505460C46208850B92389A288618821
:101D90002846FFF7D8FFE1882846FFF7CBFF25E06C
:101DA000208804280AD12389A28861882846FFF761
:101DB00094FFE1882846FFF783FF17E02088082872
:101DC0000AD12389A28861882846FFF755FFE18858
:101DD0002846FFF748FF09E02389A2886188284642
:101DE000FFF719FFE1882846FFF708FF70BD0021C3
:101DF00001804180012181800021C18001817047E3
:101E00002DE9F04105460C4600260127608808B9F7
:101E1000022600E00026A088012801D1022700E068
:101E200001272088A0B92389A28861882846FFF766
:101E30008AFFE1882846FFF77DFF23893A4631462D
:101E40002846FFF74AFFE1882846FFF739FF13E0ED
:101E50002389A28861882846FFF73FFFE18828464A
:101E6000FFF72EFF23893A4631462846FFF76BFFDE
:101E7000E1882846FFF75EFFBDE8F0810146486B28
:101E800070470146886B70470146C86B7047014632
:101E9000086C70470A884B881A438B881A43CB8892
:101EA0001A430B891A434B891A438B891A43A0F8AA
:101EB000442070470021018041808180C1800181E0
:101EC00041818181704731B1B0F8442042F4004231
:101ED000A0F8442005E0B0F84420C2F30E02A0F8B8
:101EE0004420704721B1828842F00402828004E0DD
:101EF00082884FF6FB731A408280704721B1828836
:101F000042F00102828004E082884FF6FE731A409C
:101F1000828070471AB183890B43838102E08389F1
:101F20008B43838170478182704702460020138A69
:101F30000B400BB1012000E000207047CA43028231
:101F4000704730B50246002000230024158A05EAB8
:101F50000103958905EA010413B10CB1012000E0E9
:101F6000002030BDCA430282704741EA0203A0F854
:101F7000483070471AB183890B43838102E083891B
:101F80008B438381704721B1828842F008028280AE
:101F900004E082884FF6F7731A4082807047018907
:101FA0004FF6F8721140018170470A4600210189FD
:101FB0004FF68F73194011430181704730B50446C5
:101FC0000D4629462046FFF7F0FF208940F0070024
:101FD000208130BD2DE9F04104460D4616461F46CE
:101FE000602D06D13B46012231462046FFF775FEA3
:101FF00005E03B46012231462046FFF7A4FE294674
:102000002046FFF7D2FF208940F007002081BDE87D
:10201000F08130B50C4600210189C9B24FF6FF7539
:1020200005EA0325154325432943018130BD2DE9E8
:10203000F04105460E4617469846002443463A4668
:1020400031462846FFF7E5FF2C894FF6F87004402B
:1020500044F007044FF68F70044044F070042C8164
:10206000BDE8F081F0B504460D4616461F463B46D6
:10207000324629462046FFF7CCFF208940F48040B5
:102080002081F0BD82884FF68F731A40828082884B
:102090000A438280704702894FF6F8731A40028122
:1020A00002890A430281704702894FF67F731A4002
:1020B000028102890A4302817047F0B50C46154639
:1020C0001E460021002200230189028B038C4FF65B
:1020D000F877394021434FF6FC473A4040F2011768
:1020E0003A434FF6DD773B404FF6FF7707EA061796
:1020F0002F433B43018102830384F0BD21B18288D9
:1021000042F08002828004E082884FF67F731A409A
:1021100082807047A0F850107047000010B5044648
:10212000FA48844208D101211020FFF700F900216C
:102130001020FFF7FCF857E0F548844209D101214F
:102140004804FFF7E3F800214FF40030FFF7DEF812
:102150004AE0F048844209D101218804FFF7D6F80B
:1021600000214FF48020FFF7D1F83DE0EA48844297
:1021700009D10121C804FFF7C9F800214FF400205C
:10218000FFF7C4F830E0E548844209D10121080591
:10219000FFF7BCF800214FF48010FFF7B7F823E0F9
:1021A000DF48844208D101212020FFF7C0F8002138
:1021B0002020FFF7BCF817E0DA48844209D101215A
:1021C0008807FFF7A3F800214FF08040FFF79EF843
:1021D0000AE0D548844207D101214005FFF796F86F
:1021E00000216005FFF792F810BD2DE9FF47054675
:1021F0000E460024A14600BFA046B08900B100BF32
:102200002C8A24F44054F08804432C82AC8941F297
:102210000C608443B08831890843718908430443C2
:10222000AC81AC8A24F44074B0890443AC82684623
:10223000FEF7FDFEB548854202D0B948854202D17D
:10224000DDF80C9001E0DDF80890A88900F400406A
:1022500040B109EBC90000EB091031684900B0FB3F
:10226000F1F707E009EBC90000EB091031688900BC
:10227000B0FBF1F76420B7FBF0F004012009642102
:1022800001FB1078A88900F4004040B1322000EB37
:10229000C800B0FBF1F000F00700044308E0322072
:1022A00000EB08106421B0FBF1F000F00F000443D4
:1022B0002C81BDE8FF874FF4165101600021818019
:1022C000C18001810C21418100218181704710B5BD
:1022D00002460020108A20F470600B884C8823434B
:1022E0008C882343CC8823431843108210BD0021DF
:1022F000018041808180C180704721B1828942F490
:102300000052828104E082894DF6FF731A40828177
:102310007047028B02F47F420283028B0A430283DE
:10232000704721B1828942F40042828103E08289B0
:10233000C2F30E028281704721B1828A42F40062A8
:10234000828204E0828A4FF2FF731A4082827047D1
:10235000C1F308028280704701468888C0F30800F4
:102360007047028A4FF6F0731A400282028A0A43CB
:102370000282704721B1828942F00202828104E028
:1023800082894FF6FD731A408281704782894FF22D
:10239000FF731A40828182890A4382817047028AD0
:1023A0004FF6DF731A400282028A0A4302827047A4
:1023B00021B1028A42F48042028204E0028A4BF692
:1023C000FF731A4002827047818941F001018181C7
:1023D000704721B1828A42F00802828204E0828A38
:1023E0004FF6F7731A4082827047028BD2B2028393
:1023F000028B42EA01220283704721B1828A42F0B5
:102400002002828204E0828A4FF6DF731A408282C1
:10241000704721B1828A42F01002828204E0828AEF
:102420004FF6EF731A4082827047828A4FF6FB7331
:102430001A408282828A0A438282704721B1828A4C
:1024400042F00202828204E0828A4FF6FD731A4053
:10245000828270471AB1838A0B43838202E0838AA7
:102460008B4383827047F0B5034600240026002585
:10247000002040F66A17B94200D100BF1846C1F3E8
:10248000421401F01F06012707FA06F5012C01D1BD
:102490000C3004E0022C01D1103000E014301AB1ED
:1024A00007682F43076002E00768AF430760F0BD8D
:1024B00002460020B1F5007F00D100BF13880B4019
:1024C0000BB1012000E00020704701F40072B2F56A
:1024D000007F00D100BFCA430280704770B502463A
:1024E000002400230025002040F66A16B14200D1E6
:1024F00000BFC1F3421501F01F03012606FA03F3E2
:10250000012D13D19689334017E0000000100140DF
:102510000044004000480040004C00400050004093
:102520000014014000780040007C0040022D02D1E0
:10253000168A334001E0968A33400C12012606FACF
:1025400004F41688344013B10CB1012000E00020DF
:1025500070BD10B50022002340F66A14A14200D1DC
:1025600000BF0A1201249440A3B2DC43048010BDD2
:102570002DE9FF5F07460D4693464FF000082E46B3
:10258000A9462C46AA4607B125B94FF0FF3004B042
:10259000BDE8F09F4FF000086CE0781C10F80800D0
:1025A000132861D2DFE800F03435366060373839FF
:1025B0003A606060603B4554410A1E0030785C49D7
:1025C0000870084601785BA002F040FA584800788D
:1025D000012803D100205E49086002E001205C4927
:1025E000086042E07078524948700846417859A026
:1025F00002F02CFA4E484078012804D100205449BA
:10260000091D086003E001205149091D08602CE004
:102610002BE02AE029E028E027E026E025E099F8F1
:10262000001053A002F012FA1FE054A002F00EFABC
:102630001BE0A17962792379A068CDE90032CDE968
:102640000210E378A278218851A002F0FFF90CE093
:102650005AA002F0FBF95EA002F0F8F99AF8001017
:102660005FA002F0F3F900E000BF00BF08F1010035
:1026700000F0FF08387840458FDC002087E770477E
:102680002B480021018070475A480068401C594976
:1026900008607047574800687047012080F313882E
:1026A00000BF00BFBFF34F8F5348006800F4E060E5
:1026B00052490843001D50490860BFF34F8F00BFC7
:1026C00000BFFEE700B5FFF7DFFF00BD08B5002043
:1026D00000900121684600F095F808BD70B50546E8
:1026E0000E4600240DB9601E70BD00241BE0295D5C
:1026F0004348FFF72DFE00BF40214148FFF7D8FEB9
:102700000028F9D0022C0DD3285DFF280AD15521CD
:102710003B48FFF71DFE00BF40213948FFF7C8FEC8
:102720000028F9D0641CB442E1D33046DCE7000055
:10273000380000204576743A204556454E545F4C8B
:102740004544306F6E5F6F6666202564200A000086
:10275000A48242424576743A204556454E545F4C19
:102760004544316F6E5F6F6666202564200A000065
:10277000525353492025640A000000005452414E30
:1027800053504152454E545F44415441200A000089
:10279000574946495F4E5450203A205B25642D2509
:1027A000642D256420253032643A253032643A2580
:1027B0003032645D5B25645D200A00004D4F445556
:1027C0004C4520494E464F202E2E2E0A0000000078
:1027D000574946204D4F44554C45202E2E2E0A0079
:1027E0006D6F64756C6554797065203A205B256463
:1027F0005D200A00340000200CED00E00000FA0526
:102800000048004070B504460D46002624B9F2A0E9
:1028100002F01CF9701E70BD2A462146F64802F0EF
:10282000B7F80646AE4205D0F4A002F00FF94FF01B
:10283000FF30F0E73046EEE710B504462CB9F6A0BD
:1028400002F004F94FF0FF3010BD002020606060FE
:10285000FF20207060700020F6E770B504460D463A
:102860002CB9F8A002F0F2F84FF0FF3070BD1E2135
:10287000FA4802F0B9FA2A462146F848801C02F0CC
:102880003CFAF6483938A0F85150012180F83A1046
:10289000FFF700FFF1493939C1F853000020E5E79F
:1028A000F8B505460C4616460DB104B12EB9ECA09C
:1028B00002F0CCF84FF0FF30F8BD287800F00100AE
:1028C00098B111212278601C81542078401C20701E
:1028D00001206B1C024600210090084601F01AFFFF
:1028E00008B1012000E0002030702878C0F34000DB
:1028F00098B112212278601C81542078401C2070ED
:1029000001206B1C024601460090002001F002FFEE
:1029100008B1012000E0002070700020CCE770B505
:1029200004460D46002604B12DB9D8A002F08EF859
:102930004FF0FF3070BD28782178884203D0DDA0A9
:1029400002F084F8012668786178884203D0E0A01C
:1029500002F07CF801263046ECE738B505460C4617
:1029600005B12CB9E1A002F071F84FF0FF3038BD8D
:10297000002020702878234601220021009008467C
:1029800001F029FF687823460122114600900020BB
:1029900001F021FF0121204601F0C6FD0020E6E7FD
:1029A0002DE9F04780460C4617461D46089E94F8D0
:1029B00000900CB105B136B9D8A002F047F84FF03D
:1029C000FF30BDE8F087B8F1000F53D11421A348C0
:1029D0001E3002F009FAB9F1010F06D0B9F1020F69
:1029E00012D0B9F1050F43D122E09C4A6F32A2F117
:1029F0005101601CFFF754FF0120984939390870D4
:102A000000250020306034E094496E31C81CFFF787
:102A1000A4FF48B99148393890F8A700687003209E
:102A200028700220306002E04FF0FF30C9E720E05C
:102A30007A1E611C8948223802F05FF9781E8749A6
:102A40003939C1F82D0010218448393890F85720C1
:102A500058308154583890F85700401C7F49393914
:102A600081F857000320087000250020306000E046
:102A700000BF00BF0020A4E72DE9F04F8DB006464F
:102A80008B461746994600200C90824680460025CA
:102A900001ACBBF1000F06D1ACA001F0D7FF681E5E
:102AA0000DB0BDE8F08FB9F1010F06D196F808809E
:102AB00008F10600384485B201E0781D85B22B4646
:102AC00042463946A7A001F0C1FFFF2004F8010BE0
:102AD00004F8010B281204F8010B04F8015B3079AB
:102AE000401C04F8010B707904F8010B002004F875
:102AF000010B04F8019B4FF0080AB9F1010F0DD149
:102B000004F8018B0AF1010A01A901EB0A0042460F
:102B100006F1090102F0F1F8C244444437B101A9B9
:102B200001EB0A003A46594602F0E7F8291D01A8D0
:102B300001F02EFB0146E81C01AA1154291D01A831
:102B4000FFF7CCFD0C900C98002806DA8FA00C99AA
:102B500001F07CFF6FF00100A2E70020A0E7FEB5C6
:102B600005460E461746002426B98EA001F06EFFDA
:102B7000601EFEBD6846FFF75FFE05208DF804006D
:102B80003648393890F83110D0F83100401C334ABB
:102B9000393AC2F83100C8B28DF805008DF80850F6
:102BA000072001F008FBADF802003A4631460DF16E
:102BB000090002F0A2F80B21684601F0E9FA8DF84D
:102BC0000A000B216846FFF789FD0446002C01DA54
:102BD0002146FBE000E100004552523A2067697A45
:102BE0005075744461746120627566206973206554
:102BF0006D707479200A00000E0200204552523A8E
:102C0000204661696C656420746F20726257726936
:102C10007465200A000000004552523A2067697A24
:102C200050726F746F636F6C48656164496E69744C
:102C3000206865616420697320656D707479200A6D
:102C4000000000004552523A2064617461206973AB
:102C500020656D707479200A000000004D0100208D
:102C600067697A44617461506F696E743245766544
:102C70006E74204572726F72202C20496C6C6567EF
:102C8000616C20506172616D0A00000067697A43CF
:102C90006865636B5265706F7274204572726F72F3
:102CA000202C20496C6C6567616C20506172616DED
:102CB0000A00000076616C75654C4544306F6E5FAC
:102CC0006F6666204368616E6765640A00000000F5
:102CD00076616C75654C4544316F6E5F6F6666203A
:102CE0004368616E6765640A0000000067697A44A2
:102CF000617461506F696E7473325265706F727473
:102D000044617461204572726F72202C20496C6C92
:102D10006567616C20506172616D0A0067697A5065
:102D2000726F746F636F6C49737375656450726F03
:102D300063657373204572726F72202C20496C6C2E
:102D40006567616C20506172616D0A005B4552528B
:102D50005D202064617461204973204E756C6C2085
:102D60000A0000006C656E203D202564202C207335
:102D70004469644C656E203D202564202C64617498
:102D8000615F6C656E203D2025640A007561727478
:102D9000207772697465206572726F7220256420D5
:102DA0000A00000067697A5265706F72744461743A
:102DB00061204572726F72202C20496C6C656761CE
:102DC0006C20506172616D0A00000000FAA001F0F1
:102DD0003DFE6FF00100CCE60B216846FFF73DFD9C
:102DE0002046C6E670B50446FFF754FC0546F9498F
:102DF0002046FFF794FD012813D1F7A001F026FE2D
:102E0000F449C91E2046FFF7A8FD28B90122F1495F
:102E1000C91E0420FFF7A3FEEE48AA382188A0F8B7
:102E2000AA10F348B5FBF0F100FB1150C8B9F14806
:102E30000068A84215D0F0A001F008FEE549C91EBF
:102E40002046FFF78AFD28B90122E249C91E042065
:102E5000FFF785FEDF48AA382188A0F8AA10E548C8
:102E6000056070BD2DE9FE4F80460E4617464FF0B7
:102E7000000B0020029081468246002534460090D7
:102E8000B8F1000F01D006B137B9E1A001F0DEFDC5
:102E90004FF0FF30BDE8FE8F404601F0FDFC00F032
:102EA000FF0ABAF1000F02D14FF0FF30F2E74FF006
:102EB00000095DE0012201A9404601F018FD8346AA
:102EC000BBF1000F52D0DE480078FF281FD19DF8DB
:102ED0000400FF281BD1DB48007848B9FF20207090
:102EE00060700220D84908800120D649087034E07B
:102EF000D5480088042830DDD3480088A8422CD06B
:102F0000FF20207060700220CF49088025E0CC4867
:102F10000078FF2803D19DF8040055281DD0C9482A
:102F20000078012819D19DF80400C7490988605428
:102F3000C5480088401CC449088008460088042809
:102F40000BDD0094009C608801F035F9001D85B20E
:102F5000BD480088A84200D10CE09DF80400B849A3
:102F60000870BA480078401CB849087009F1010996
:102F7000D1459FDB00BFB4480088042823DDB24858
:102F80000088A8421FD1B0480188204601F000F90E
:102F90000290AD480088401E215C029881420FD10A
:102FA0002A462146304601F0A8FE3D800020A54972
:102FB0000870A5490880A5490870A149087069E70B
:102FC0006FF0010066E7012064E710B50024814836
:102FD000AA3890F83A0000B910BD9DA001F036FD66
:102FE0007C48AA38B0F851103B30FFF777FB044615
:102FF0007848AA38B0F85100A04202D09CA001F055
:1030000025FDFFF747FB7349AA39C1F8530000BFFC
:10301000E2E770B504466F4D6F3D34B9AFF2DC3076
:1030200001F014FD4FF0FF3070BD2879401C21796C
:10303000884204D11E216748713801F0D5FE002076
:10304000F2E73EB50446002524B98FA001F0FEFC4E
:10305000681E3EBD20680090606801909DF80400E5
:10306000401CC0B28DF80400052001F0A4F8ADF8B2
:1030700002000921684601F08BF88DF8080009214B
:103080006846FFF72BFB0546002D03DA29464AA0C8
:1030900001F0DCFC2846DCE710B54E48AA3890F871
:1030A0003A0001282CD14B48AA3890F83900022860
:1030B00021DAFFF7EFFA4749AA39D1F85310401A3D
:1030C000C8281DD9FFF7E6FA04464248AA3890F806
:1030D0003930D0F85320214676A001F0B7FCFFF735
:1030E00074FF3C48AA3890F83900401C3949AA3985
:1030F00081F8390004E01E213648713801F074FE71
:1031000010BD30B59DB0044600252CB973A001F068
:103110009DFC681E1DB030BD6846FFF78DFB022088
:103120008DF8040060798DF8050078A103C9CDE918
:10313000020179A103C9CDE904017AA103C9CDE94E
:1031400008017BA103C9CDE9060120227BA10AA8C1
:1031500001F018FE202282A10DF1520001F0CDFDF8
:103160000020CDF84A00CDF84E009DF851008DF8B2
:1031700051009DF8510040F002018DF851100020DF
:1031800001F019F8ADF848006F2001F014F8ADF81F
:1031900002007321684600F0FBFF8DF87200732176
:1031A0006846FFF79BFA0546002D03DA294602A080
:1031B00001F04CFC2846ADE74552523A2075617249
:1031C00074207772697465206572726F722025644D
:1031D000200A0000BE0100206368616E6765642CF0
:1031E000207265706F727420646174610A0000005F
:1031F000C027090040000020496E666F3A20363033
:103200003053207265706F727420646174610A00BB
:1032100067697A50726F746F636F6C4765744F6E35
:10322000655061636B6574204572726F72202C204B
:10323000496C6C6567616C20506172616D0A0000B9
:1032400048000020440000204600002049000020E3
:103250005761726E696E673A2074696D656F757437
:103260002C20726573656E642064617461200A00AD
:103270004552523A20726573656E642064617461D0
:10328000206572726F720A004552523A2067697A5D
:1032900050726F746F636F6C436F6D6D6F6E4163CF
:1032A0006B206461746120697320656D707479208E
:1032B0000A0000005761726E696E673A67697A505A
:1032C000726F746F636F6C526573656E6444617482
:1032D000612025642025642025640A0067697A50EE
:1032E000726F746F636F6C4765744465766963656C
:1032F000496E666F204572726F72202C20496C6C8B
:103300006567616C20506172616D0A003030303049
:103310003030303400000000303030303030303267
:103320000000000030333033303030300000000017
:103330003033303130313030000000003837663300
:10334000343836376364633734303064613933631B
:103350003864336132316364623435320000000016
:1033600033643635393332333539373934353361AF
:10337000613261313636393465363533373539386F
:1033800000000000FEB504460E46002524B9FAA050
:1033900001F05CFB681EFEBD6846FFF74DFA122087
:1033A0008DF8040060798DF80500062000F003FF19
:1033B000ADF802008DF808600A21684600F0E8FECA
:1033C0008DF809000A216846FFF788F90546002DA7
:1033D00004DA2946AFF2202001F038FB2846DAE76C
:1033E00070B5044625462CB9EEA001F02FFB4FF036
:1033F000FF3070BDF048A9680160E9684160298A22
:103400000181A97C8172A0F1AD01B1F8AD0000F09D
:10341000D2FEE949AD39A1F8AD00D1F8B50000F010
:10342000D7FEE549AD39C1F8B5000E21E248AD3807
:1034300090F87F2080308154803890F87F00401CC5
:10344000DD49AD3981F87F00042008700020D0E705
:1034500010B5FFF71FF9044600BFFFF71BF9001B6B
:10346000B0F5167FF9D9FFF718F910BD10B504466D
:103470002CB9D2A001F0EAFA4FF0FF3010BD20893C
:1034800000F099FE2081D9480078C0F38000217AAD
:10349000C1F3800188425ED0207AC0F3800000280A
:1034A0002DD0207A00F0010088B10021C248AD384B
:1034B00090F86B206C3081546C3890F86B00401C95
:1034C000BD49AD3981F86B00C9A001F0BFFA207A7F
:1034D000C0F3400000283ED00121B748AD3890F835
:1034E0006B206C3081546C3890F86B00401CB249F2
:1034F000AD3981F86B00C6A001F0A8FA2BE0207A64
:1035000000F0010088B10021AB48AD3890F86B2085
:103510006C3081546C3890F86B00401CA649AD3972
:1035200081F86B00B2A001F091FA207AC0F340005C
:1035300088B10221A048AD3890F86B206C308154DE
:103540006C3890F86B00401C9B49AD3981F86B00DA
:10355000B6A001F07BFAA5480078C0F3C000217A3C
:10356000C1F3C001884230D0207AC1089F4800785A
:1035700061F3C3009D490870207AC0F3C00090B188
:1035800003218D48AD3890F86B206C3081546C3835
:1035900090F86B00401C8849AD3981F86B00AAA0F7
:1035A00001F054FA11E004218348AD3890F86B2003
:1035B0006C3081546C3890F86B00401C7E49AD39FA
:1035C00081F86B00A8A001F041FA88480078C0F3A8
:1035D0000010217AC1F30011884230D0207A01090D
:1035E0008248007861F3041080490870207AC0F3A3
:1035F000001090B105217048AD3890F86B206C3008
:1036000081546C3890F86B00401C6B49AD3981F8DF
:103610006B009DA001F01AFA11E006216648AD3852
:1036200090F86B206C3081546C3890F86B00401C23
:103630006149AD3981F86B009BA001F007FA6B4836
:103640000078C0F34010217AC1F34011884230D095
:10365000207A41096548007861F345106349087094
:10366000207AC0F3401090B107215348AD3890F84C
:103670006B206C3081546C3890F86B00401C4E49C4
:10368000AD3981F86B0091A001F0E0F911E008215B
:103690004948AD3890F86B206C3081546C3890F804
:1036A0006B00401C4449AD3981F86B008EA001F0DD
:1036B000CDF94E484078C0F3C001607AC0F3C00035
:1036C000814230D0607AC1084848407861F3C30035
:1036D00046494870607AC0F3C00090B10B2136486B
:1036E000AD3890F86B206C3081546C3890F86B00DA
:1036F000401C3149AD3981F86B0083A001F0A6F977
:1037000011E00C212C48AD3890F86B206C308154BE
:103710006C3890F86B00401C2749AD3981F86B007C
:1037200080A001F093F931484078C0F30011607A2D
:10373000C0F3001081421DD0607A01092B48407807
:1037400061F3041029494870607AC0F3001090B109
:1037500009211948AD3890F86B206C3081546C38D1
:1037600090F86B00401C1449AD3981F86B0075A0CE
:1037700001F06CF904E1F3E067697A50726F746FDD
:10378000636F6C4572726F72436D64204572726F25
:1037900072202C20496C6C6567616C2050617261ED
:1037A0006D0A00004552523A204E54502069732051
:1037B000656D707479200A00C101002067697A5034
:1037C000726F746F636F6C4D6F64756C6553746169
:1037D000747573204572726F72202C20496C6C6571
:1037E00067616C20506172616D0A00004A00002020
:1037F0004F6E426F617264696E673A20536F6674F0
:103800004150206F7220576562206D6F64650A0019
:103810004F6E426F617264696E673A204169724C03
:10382000696E6B206D6F64650A0000004F6E426F19
:10383000617264696E673A2053746174696F6E20B7
:103840006D6F64650A0000005769466920737461F2
:103850007475733A20696E2062696E64696E6720C0
:103860006D6F64650A0000005769466920737461D2
:103870007475733A206F75742062696E64696E673F
:10388000206D6F64650A0000576946692073746192
:103890007475733A20636F6E6E656374656420722D
:1038A0006F757465720A0000576946692073746108
:1038B0007475733A20646973636F6E6E65637465C3
:1038C0006420726F757465720A000000576946695A
:1038D000207374617475733A20636F6E6E656374E0
:1038E0006564206D326D0A00576946692073746102
:1038F0007475733A20646973636F6E6E6563746583
:1039000064206D326D0A0000576946692073746146
:103910007475733A2061707020636F6E6E656374A6
:103920000A00000057694669207374617475733A20
:10393000206E6F2061707020636F6E6E6563740A15
:103940000000000057694669207374617475733A0A
:1039500020696E2074657374206D6F64650A0000C1
:103960000A21FB4890F86B206C3081546C3890F839
:103970006B00401CF64981F86B00F6A001F066F878
:103980000D21F34890F86B206C3081546C3890F81E
:103990006B00401CEE4981F86B00607A00F0070074
:1039A00081F8AC00084690F8AC10F1A001F04EF898
:1039B0000220E7490870002060E510B52C20F0498E
:1039C0000860F048C860084600F048FF18B9EEA04B
:1039D00001F03CF802E0F1A001F038F8FA21DC48EF
:1039E00001F002FA10BD30B587B005460024052D60
:1039F0007ED2DFE805F003316193C10001A8FEF734
:103A00001BFF0B208DF80800D14890F83110D0F83A
:103A10003100401CCE4AC2F83100C8B28DF809000E
:103A2000052000F0C8FBADF80600092101A800F050
:103A3000AFFB8DF80C00092101A8FEF74FFE0446EC
:103A4000002C04DA2146AFF6900000F0FFFF0921B8
:103A500001A8FEF702FFC1E004A8FEF7EDFE092071
:103A60008DF81400BA4890F83110D0F83100401C9D
:103A7000B74AC2F83100C8B28DF815008DF8185059
:103A8000062000F098FBADF812000A2104A800F00F
:103A90007FFB8DF819000A2104A8FEF71FFE0446DB
:103AA000002C04DA2146AFF6F00000F0CFFF0A2127
:103AB00004A8FEF7D2FE91E004A8FEF7BDFE09209F
:103AC0008DF81400A24890F83110D0F83100401C55
:103AD0009F4AC2F83100C8B28DF815008DF8185011
:103AE000062000F068FBADF812000A2104A800E0EF
:103AF00070E000F04DFB8DF819000A2104A8FEF7D4
:103B0000EDFD0446002C04DA2146AFF6541000F017
:103B10009DFF0A2104A8FEF7A0FE5FE001A8FEF7C2
:103B20008BFE13208DF80800894890F83110D0F8EA
:103B30003100401C864AC2F83100C8B28DF8090035
:103B4000052000F038FBADF80600092101A800F0BF
:103B50001FFB8DF80C00092101A8FEF7BFFD0446EC
:103B6000002C04DA2146AFF6B01000F06FFF0921F7
:103B700001A8FEF772FE31E001A8FEF75DFE1520F8
:103B80008DF80800724890F83110D0F83100401CD0
:103B90006F4AC2F83100C8B28DF80900052000F064
:103BA0000AFBADF80600092101A800F0F1FA8DF832
:103BB0000C00092101A8FEF791FD0446002C04DA4F
:103BC0002146AFF60C2000F041FF092101A8FEF7C5
:103BD00044FE03E076A000F039FF00BF00BF20469E
:103BE00007B030BD3EB500246846FEF725FE17201D
:103BF0008DF80400564890F83110D0F83100401C80
:103C0000534AC2F83100C8B28DF80500052000F013
:103C1000D2FAADF802000921684600F0B9FA8DF831
:103C2000080009216846FEF759FD0446002C03DA16
:103C3000214665A000F00AFF09216846FEF70DFE47
:103C40003EBD3EB500246846FEF7F6FD21208DF806
:103C500004003F4890F83110D0F83100401C3C4A35
:103C6000C2F83100C8B28DF8050000208DF80800B8
:103C7000062000F0A0FAADF802000A21684600F024
:103C800087FA8DF809000A216846FEF727FD0446E9
:103C9000002C03DA21464CA000F0D8FE0A21684629
:103CA000FEF7DBFD3EBD70B5044625462CB94EA09F
:103CB00000F0CCFE4FF0FF3070BD412205F108014D
:103CC0002348B93001F019F80F21214890F89320CA
:103CD00094308154943890F89300401C1C4981F82A
:103CE0009300052008700020E6E72DE9F0418EB032
:103CF00005460026002002900190002480460027FF
:103D000035B93DA000F0A2FE601E0EB0BDE8F08106
:103D1000FFF7C2F902AA0E49491C1948FFF7A2F899
:103D20000646002E12D13EA000F090FE084C641C06
:103D300020790D280BD07DDC07287CD07CDC012885
:103D40007BD003287AD0062879D1B9E0EDE0B0E045
:103D50001401002057694669207374617475733AC1
:103D6000206F75742074657374206D6F64650A002C
:103D700052535349206973202564200A0000000033
:103D80000E0200201E02002072624372656174659B
:103D90002053756363657373200A00007262437277
:103DA00065617465204661696C64200A000000004A
:103DB0004552523A204366674D6F646520657272C2
:103DC0006F72210A000000004552525B4E54505D54
:103DD0003A20756172742077726974652065727219
:103DE0006F72202564200A004E54502069732065AC
:103DF0006D707479200A000047697A776974734896
:103E0000616E646C65204572726F72202C20496C63
:103E10006C6567616C20506172616D0A0000000082
:103E2000476574204F6E65205061636B6574210A8D
:103E30000000000009E038E002E015E018E06BE067
:103E40000A283ED00C2867D13CE016283BD006DC7F
:103E50000F283CD0112843D014285DD141E0182808
:103E600046D0222858D14DE02046FFF74AF95BE0C2
:103E7000E279A1798EA000F0E9FD01A8009007F198
:103E80000900BDF808301A1A8D48C11903AB404625
:103E9000FEF786FD40B9E37903A92046019AFEF7B3
:103EA000EBFD88A000F0D2FD3EE02046FFF7C9F808
:103EB0003AE02046FFF7C5F82046FFF7D7FA33E08F
:103EC00000BF00BF00BF2046FFF7A3F82CE020464C
:103ED000FFF7B7F87EA000F0B9FDFFF7B9FA23E0CD
:103EE00022E02046FFF795F87EA000F0AFFD1BE032
:103EF0002046FFF78EF82046FFF772FA81A000F007
:103F0000A5FD11E02046FFF784F82046FFF7CBFE21
:103F100082A000F09BFD07E002212046FFF732FA65
:103F200085A000F093FD00BF0EE016F1020F0BD14B
:103F3000634C083C01212046FFF724FA84A000F0DE
:103F400085FD6FF00100E0E65D480938007806283D
:103F500050D2DFE800F04F0313232F3F00205849D1
:103F6000093908700222A831A1F15100FEF700FBC7
:103F7000142153484E3000F037FF3CE000205049F8
:103F8000093908700122AC31A1F14100FEF7F0FAC5
:103F900014214B48623000F027FF2CE000204849F4
:103FA000093908700846D0F82D2017315730FEF730
:103FB000DFFA20E000204249093908700C22AD31B7
:103FC000A1F12E00FEF7D4FA14213D48763000F01E
:103FD0000BFF10E000203A49093908704122B9313D
:103FE000A1F12600FEF7C4FA412135488A3000F0DD
:103FF000FBFE00E000BF00BF2846FEF7F3FE0020F6
:1040000083E62DE9F04186B006460F464FF00008E2
:104010006C46B81D85B23EB953A000F017FD4FF0B5
:10402000FF3006B0BDE8F081FF2004F8010B04F872
:10403000010B281204F8010B04F8015B052004F8B9
:10404000010B1F48093890F83110D0F83100401C9E
:104050001B4A093AC2F8310004F8011B002004F899
:10406000010B04F8010B062004F8010B3A46314617
:104070000DF1090000F041FE291D684600F088F8A6
:104080000146E81C0DF80010291D6846FEF726FBC6
:104090008046B8F1000F04DA4146AFF6E46000F064
:1040A000D5FC291D6846FEF7D8FB0020B9E70000C3
:1040B000666C6167202578202578200A00000000C2
:1040C0001D01002041636B44617461203A200A00A5
:1040D0007265706F72743A4D4355207265626F6FEE
:1040E00074210A0041636B2050524F445543544998
:1040F0004F4E5F4D4F444520737563636573732066
:104100000A00000041636B204745545F555454201A
:1041100073756363657373200A00000041636B204D
:104120004745545F4D6F64756C65207375636365B7
:104130007373200A000000004552523A20636D64F8
:1041400020636F6465206572726F72210A0000003F
:104150004552523A20636865636B2073756D206524
:1041600072726F72210A00005B4552525D206769CE
:104170007A77697473506173737468726F75676866
:1041800044617461204572726F72200A0000000061
:1041900010B502460024002302B109B9002010BD69
:1041A000022303E0D05C2044C4B25B1C481E98424A
:1041B000F8D82046F3E701B581B0002000906946A9
:1041C00001AA5078087010784870BDF800000CBD46
:1041D0000146080601F47F4240EA022001F47F0212
:1041E00040EA122040EA1160704710B502460024F0
:1041F000302A05DB392A03DCA2F13000C3B20EE01D
:10420000412A05DB462A03DCA2F13700C3B206E0EF
:10421000612A04DB662A02DCA2F15700C3B230290E
:1042200005DB392903DCA1F13000C4B20EE04129DD
:1042300005DB462903DCA1F13700C4B206E06129A1
:1042400004DB662902DCA1F15700C4B204EB0310C1
:10425000C0B210BD70B5044600250026204600F00F
:104260002DFD06460CB9681E70BD002505E0605D99
:10427000302801D00020F7E76D1CB542F7D30120AC
:10428000F2E72DE9F043034600BF00250024002695
:104290000027012901D002290DD1A3F1010C4FF013
:1042A0006408BCFBF8F4BCFBF8F908FB19C501F184
:1042B0000C06174609E04FF0640CB3FBFCF4B3FBAB
:1042C000FCF80CFB18350E46174606F1010C4FF0B2
:1042D0001A080CFB08FC4FF00A08BCFBF8FC05EBC5
:1042E000950808EB94084FF0020909FB1488C444B0
:1042F000BC44ACF10100002806DB4FF0070C90FB3A
:10430000FCF80CFB180C07E04FF0070C90FBFCF8D6
:104310000CFB180C0CF1070C6046BDE8F08301465D
:104320000A46C81701EB90708010A1EB800070B9AD
:10433000642091FBF0F300FB131030B94FF4C87008
:1043400091FBF0F300FB131008B901207047002027
:10435000FCE710B504462046FFF7E1FF10B14FF42B
:10436000B77010BD40F26D10FBE72DE9F04190B041
:1043700080460E4640F2B2753022694901A800F02D
:1043800001FD344604F5E14400BF11E02846FFF783
:10439000E0FF074640F2A3207843B4EBC01F06D3EA
:1043A00040F2A3207843A4EBC0146D1C00E001E0B0
:1043B000002CEBD100BFA8B2ADF83400002518E006
:1043C000BDF83400FFF7ABFF08B11D20029001A833
:1043D00050F8250040F2A3214843B4EBC01F07D397
:1043E00001A850F825004843A4EBC0146D1C00E060
:1043F00001E0002CE4D100BF1C200290681CC0B278
:104400008DF83600012506E04648844202D3241A7E
:104410006D1C00E001E0002CF6D100BFE8B28DF881
:1044200037004FF46160B4FBF0F0C0B28DF8380093
:104430004FF46160B4FBF0F100FB11403C21B0FB94
:10444000F1F0C0B28DF839003C20B4FBF0F100FB74
:1044500011408DF83A00CDF83B600D98C8F8000087
:104460000E98C8F80400BDF83C00A8F808009DF8B4
:104470003E0088F80A0010B0BDE8F0812DE9F05F39
:1044800080460E46914600241CE016F814A06000F9
:10449000401C16F800B0504600F0C8FA3038C5B2DB
:1044A000092D01DDE81FC5B2584600F0BFFA3038CB
:1044B000C7B2092F01DDF81FC7B207EB051008F8D6
:1044C0000400641C4C45E0DBBDE8F09FF0B50346FA
:1044D00000201EE00E5CF71706EB17773F1107F17F
:1044E00030050E5CF71706EB17773F11A6EB0717A1
:1044F0003037FCB2392D01DDEE1DF5B2392C01DD6E
:10450000E61DF4B203F81050012606EB40069C5558
:10451000401C9042DEDB002603F81260F0BD000074
:10452000D45000088051010030B502460B460021EE
:10453000002400250AB9481E30BD002108E0545C63
:10454000581A401E155C5554581A401E1454491CE4
:10455000B1EB530FF3D30020EEE710B50346002074
:10456000541AB4FBF3F010BD10B50346002002FB53
:10457000031010BD002071EE601A81EE802AFCEE5F
:10458000C21A11EE900A7047B0EE401ADFEDB21A6F
:10459000B0EE610A01EE900AB8EE612AF0EE601A00
:1045A00042EE011AB0EE610A7047024612B102F003
:1045B000070028B9082901D8002070470120FCE72E
:1045C00002F00700C0F10800884201D30020F4E7A0
:1045D0000120F2E72DE9F0470546884614461E46BD
:1045E0004FF00009CA460027002314B9581EBDE841
:1045F000F087EB0841462846FFF7D7FF07463FB94B
:10460000E05C05F0070106FA01F10843E0541DE003
:10461000012F1BD1F0B205F00701C1F1080140FAEA
:1046200001F905F00700C0F10801FF20084100EA88
:10463000060A581C205C40EA0900591C6054E05CE2
:1046400005F007010AFA01F10843E0540020CEE723
:104650002DE9F04F8FB004460F4690461D460026C8
:10466000B246B146B34600200E90B8F1000F00D01C
:1046700025B94FF0FF300FB0BDE8F08F4FEAD409F5
:104680002A46414601A800F038FB012D09D92946E8
:1046900001A8FFF749FFB0F1FF3F02D14FF0FF3013
:1046A000E9E739462046FFF780FF8246BAF1000F5E
:1046B0000CD101A810F8090004F007010841C7F166
:1046C0000802FF2111410840064321E0BAF1010F21
:1046D0001ED101A909F10100085C04F00701C1F134
:1046E0000801791AC1F10802FF21114100EA010B0A
:1046F00001A810F8090004F0070108410E9004F029
:104700000700C0F108010BFA01F006430E980643BA
:104710003046B0E72DE9F04F8FB005460C461646FF
:104720009946189F4FF0000AD34600200E9080460D
:10473000B9F1000F00D027B94FF0FF300FB0BDE83E
:10474000F08F3A46494601A800F0D7FA012F09D95F
:10475000394601A8FFF7E8FEB0F1FF3F02D14FF064
:10476000FF30EBE731462046FFF71FFF8246BAF1E4
:10477000000F0CD101A8405D04F007010841C6F10B
:104780000802FF211141084040EA080821E0BAF17F
:10479000010F1ED101A9681C085C04F00701C1F1DA
:1047A0000801711AC1F10802FF21114100EA010B51
:1047B00001A8405D04F0070108410E9004F00700D5
:1047C000C0F108010BFA01F040EA08080E9848EA27
:1047D00000084046B2E72DE9F04704460D4617466B
:1047E000089E4FF00009CA46C8461BB94FF0FF307B
:1047F000BDE8F08739462846FFF7D7FE8046B8F176
:10480000000F07D1185D05F0070106FA01F1084312
:1048100018551EE0B8F1010F1BD1F0B205F00701E9
:10482000C1F1080140FA01F905F00700C0F10801E3
:10483000FF20084100EA060A601C185C40EA0900F3
:10484000611C5854185D05F007010AFA01F108438C
:1048500018550020CCE7000000000000014611B907
:104860004FF0FF307047C8684860C8688860002013
:10487000F8E7014611B94FF0FF3070470020C860DB
:1048800048608860086000BFF7E7014611B94FF043
:10489000FF3070470868FCE700B5024612B94FF0D8
:1048A000FF3000BD50689168884201D10020F8E7D0
:1048B00050689168884203D290685168401AF0E7C6
:1048C0001046FFF7E2FF51689368C91A401AE8E7FB
:1048D00030B5044614B94FF0FF3030BD2046FFF725
:1048E000D4FF05462046FFF7D7FF281AF5E72DE944
:1048F000F04104460F461646002514B9681EBDE86F
:10490000F08117B94FF0FF30F9E76068A16888427D
:1049100014D22046FFF7C0FFB04201D9304602E072
:104920002046FFF7B9FF054661682A46384600F081
:10493000E4F96068284460602846E0E72046FFF715
:10494000A4FF6168E268891A401AB0420AD9354664
:1049500061682A46384600F0D0F9606828446060F3
:104960002846CCE72046FFF790FF6168E268891A85
:10497000451A61682A46384600F0BFF9E068606071
:10498000721B79192046FFF7B2FF05442846B6E7A7
:104990002DE9F04104460F461546002604B11FB923
:1049A0004FF0FF30BDE8F0812046FFF791FFA842AD
:1049B00002D86FF00100F5E76068A16888422AD844
:1049C0002046FFF762FFA168E268891A461AB542DD
:1049D00013D8A0682A46394600F08FF9A068284409
:1049E000A0602046FFF751FFE1680844A1688842B3
:1049F00001D1E068A0602846D4E7A0683246394675
:104A000000F07BF9E068A060AA1BB9192046FFF707
:104A1000BFFF3044C6E7A0682A46394600F06DF96A
:104A2000A0682844A0602846BCE7704710B504463B
:104A300000F000FA0068005D000704D5DF2C02D00A
:104A4000A4F1200010BD204610BD00000FB40449A1
:104A500010B503AA029800F04FFA10BC5DF814FBE1
:104A60001C00002070B5044685690068C10601D5A8
:104A7000302600E02026C00707D070BDD4E9012110
:104A800030469047206A401C20626D1EF6D570BDEE
:104A900070B5044685690078C00707D170BDD4E9B8
:104AA000012120209047206A401C20626D1EF6D50F
:104AB00070BD00002DE9F0410646002410687529FC
:104AC000314616A510D0AFF30080002802DA40422C
:104AD00013A507E031688A0701D512A502E049074E
:104AE00004D511A5012401E0AFF3008000210A22C2
:104AF00006F1240709E0B0FBF2FCB0FBF2F302FB85
:104B00001C00303078541846491C0028F3D1234645
:104B10002A463046BDE8F04100F094B9000000009C
:104B20002D0000002B0000002000000070B504469E
:104B30000D4621461068AFF300802188090502D593
:104B40000F4A7A4402E00E4A7A440E32002104F100
:104B5000240305E000F00F060009965D5E54491C31
:104B60000028F7D120780023000704D5702D02D04B
:104B700009B1022311322046BDE8704000F062B94D
:104B8000BE0500002DE9F05F894604464FF0000A9B
:104B9000DFF824B1FB44C0F820A02046E168884734
:104BA00000287DD0252806D0D4E901219047206A2D
:104BB000401C2062F1E700255F462046E1688847F7
:104BC0002028064607DB312E05D2B81910F8200C34
:104BD00008B10543F1E7A80701D525F00405C4F89D
:104BE0001CA00027C4F818A02A2E09D0304600F0D7
:104BF0004DFA38B304EB8708303EC8F8186019E066
:104C000059F8041B204604EB87029161E16888474C
:104C1000012F064618D1E069002820DA25F020058A
:104C20001DE0D8F8180000EB800006EB400030389B
:104C3000C8F818002046E1688847064600F026FAC2
:104C40000028EED1012F0AD02E2E08D12046E1688F
:104C500088477F1C0646022F45F02005C4DBA0696B
:104C6000002803DA404245F00105A061E80701D0C1
:104C700025F01005A6B1A6F14100192802D820366A
:104C800045F400654A463146204625604D46FBF70F
:104C9000B5FA60B1012807D0ED1D25F0070000E04E
:104CA00007E000F1080978E705F1040975E73046E7
:104CB0007AE7206ABDE8F09F9405000010B5431C18
:104CC00002E010F8011B71B18107FAD14FF00132F7
:104CD00002C88C1A8C4314EAC211F9D0C01A0A0611
:104CE00003D0C01E10BDC01A10BD0A0401D0801E22
:104CF00010BD0902FCD0401E10BD032A40F23080D6
:104D000010F0030C00F0158011F8013BBCF1020F0C
:104D1000624498BF11F801CB00F8013B38BF11F88D
:104D2000013BA2F1040298BF00F801CB38BF00F8A4
:104D3000013B11F0030300F02580083AC0F0088021
:104D400051F8043B083A51F804CBA0E80810F5E705
:104D5000121D5CBF51F8043B40F8043BAFF30080E8
:104D6000D20724BF11F8013B11F801CB48BF11F85D
:104D7000012B24BF00F8013B00F801CB48BF00F82D
:104D8000012B704710B5203AC0F00B80B1E81850E5
:104D9000203AA0E81850B1E81850A0E81850BFF425
:104DA000F5AF5FEA027C24BFB1E81850A0E81850C4
:104DB00044BF18C918C0BDE810405FEA827C24BF18
:104DC00051F8043B40F8043B08BF7047D20728BFA6
:104DD00031F8023B48BF11F8012B28BF20F8023BF5
:104DE00048BF00F8012B70474FF000020429C0F0C3
:104DF000128010F0030C00F09380CCF1040CBCF195
:104E0000020F18BF00F8012BA8BF20F8022BA1EB5E
:104E10000C0100F085B85FEAC17C24BF00F8012BCB
:104E200000F8012B48BF00F8012B7047704770470E
:104E30007047704710B500F099F8001D10BD00BF15
:104E40005D0200002DE9F0470D4699469246044662
:104E500000F124080168880604D5E06921F01001FA
:104E6000216000E00120A84201DD471B00E000278F
:104E7000A1697A1902EB0900081AA0612078C0061E
:104E800002D42046FFF7EEFD002608E0D4E9012118
:104E90001AF806009047206A401C761C20624E4596
:104EA000F4DB2078C0060AD52046FFF7DBFD06E0DC
:104EB000D4E9012130209047206A401C2062381E2E
:104EC000A7F10107F4DC07E0D4E9012118F8050097
:104ED0009047206A401C2062281EA5F10105F3DCE2
:104EE0002046FFF7D5FD2078000602D50220BDE858
:104EF000F0870120FBE70000074B70B50D467B44AF
:104F000000F03DF80446284600F04CF810B14FF090
:104F1000FF3070BD204670BD23BAFFFF4FF0000286
:104F200000B5134694469646203922BFA0E80C509F
:104F3000A0E80C50B1F12001BFF4F7AF090728BF7A
:104F4000A0E80C5048BF0CC05DF804EB890028BFF6
:104F500040F8042B08BF704748BF20F8022B11F01F
:104F6000804F18BF00F8012B7047000000487047C1
:104F70006C02002001694A1C02610878704700B584
:104F80008FB0CDE901310021059105497944CDE982
:104F9000031011466846FFF7F5FD0FB000BD000095
:104FA000E5FFFFFF007B00F080007047004870477E
:104FB0004C0200207546FFF7F9FFAE460500694632
:104FC000534620F00700854618B020B5FBF75AFD80
:104FD000BDE820404FF000064FF000074FF00008FA
:104FE0004FF0000B21F00701AC46ACE8C009ACE87B
:104FF000C009ACE8C009ACE8C0098D46704704465A
:10500000AFF300802046FBF719F900004FF0013C98
:1050100050F8042B51F8043B9A4221D1A2EB0C0327
:10502000934313EACC1317D150F8042B51F8043BE7
:105030009A4215D1A2EB0C03934313EACC130BD184
:1050400050F8042B51F8043B9A4209D1A2EB0C030F
:10505000934313EACC13DBD04FF00000704700BF3E
:10506000D01A01BAB1FA81F101F0180122FA01F067
:10507000CB40C1F12001DBB2C0B2C01A2CFA01F35F
:10508000D11A914311EAC311E6D1704730380A288A
:1050900001D20120704700207047000010B50029A0
:1050A0000AD00878002807D005487844FFF7AEFFFB
:1050B000002801D0002010BD0248784410BD000037
:1050C000B6000000AE0000004FF04070E1EE100AA4
:1050D000704700001F0000001C0000001F000000BF
:1050E0001E0000001F0000001E0000001F00000046
:1050F0001F0000001E0000001F0000001E00000036
:105100001F000000303132333435363738394142F0
:105110004344454640305800303132333435363719
:1051200038396162636465664030780004000008C5
:10513000000000000000000200010000100000005C
:1051400070520008000000204C000000C40100085C
:10515000BC5200084C00002064140000E00100086C
:105160001001000043000000F8FFFFFF0040404036
:10517000404040404040414141414140404040402A
:1051800040404040404040404040404040050202D6
:105190000202020202020202020202020220202095
:1051A00020202020202020020202020202029090F1
:1051B00090909090101010101010101010101010EF
:1051C0001010101010101010020202020202888843
:1051D000888888880808080808080808080808084F
:1051E0000808080808080808020202024000000037
:1051F00000000000000000000000000000000000AF
:10520000000000000000000000000000000000009E
:10521000000000000000000000000000000000008E
:10522000000000000000000000000000000000007E
:10523000000000000000000000000000000000006E
:10524000000000000000000000000000000000005E
:10525000000000000000000000000000000000004E
:10526000000000000000000000000000000000003E
:10527000007A030A0000000000000000010203049D
:1052800006070809010000000000000000000000FF
:1052900000000000000001020304010203040607ED
:1052A00008090000000000000000000000000000ED
:0C52B000000000000000000000000000F2
:040000050800018965
:00000001FF
